:060000000A128A11122809
:10000800FE00030EF0000408F1000A08F200831253
:1000180003137F08F3000A128A1129280A128A1189
:100028003D2883160313880104308100643083124D
:10003800031381008B168B170B172228740888006E
:10004800222822280A128A1112280B1D2C282D2852
:100058003228F409653081000B1132287308FF003B
:1000680072088A0071088400700E8300FE0E7E0EEE
:0C0078000900F40183010A128A11152806
:00000001FF
